:0200000460009A
:100000004643464200000156000000000103030081
:1000100000000000000000000000000000000000E0
:1000200000000000000000000000000000000000D0
:1000300000000000000000000000000000000000C0
:1000400000000000010408000000000000000000A3
:100050000000800000000000000000000000000020
:100060000000000000000000000000000000000090
:100070000000000000000000000000000000000080
:10008000EB04180A063204260000000000000000FD
:10009000050404240000000000000000000000002F
:1000A0000000000000000000000000000000000050
:1000B0000604000000000000000000000000000036
:1000C0000000000000000000000000000000000030
:1000D00020041808000000000000000000000000DC
:1000E0000000000000000000000000000000000010
:1000F0000000000000000000000000000000000000
:10010000D8041808000000000000000000000000F3
:100110000204180804200000000000000000000095
:1001200000000000000000000000000000000000CF
:10013000600400000000000000000000000000005B
:1001400000000000000000000000000000000000AF
:10015000000000000000000000000000000000009F
:10016000000000000000000000000000000000008F
:10017000000000000000000000000000000000007F
:10018000000000000000000000000000000000006F
:10019000000000000000000000000000000000005F
:1001A000000000000000000000000000000000004F
:1001B000000000000000000000000000000000003F
:1001C000000100000010000001000000000000001D
:1001D000000001000000000000000000000000001E
:1001E000000000000000000000000000000000000F
:1001F00000000000000000000000000000000000FF
:10020000FFFFFFFFFFFFFFFFFFFFFFFFFFFFFFFFFE
:10021000FFFFFFFFFFFFFFFFFFFFFFFFFFFFFFFFEE
:10100000D100204000180060000000000000000037
:1010100020100060001000600000000000000000D0
:0C1020000000006000001F000000000045
:10102C00FFFFFFFFFFFFFFFFFFFFFFFF7EFFFFFF45
:1014000000040020E9180060EB180060EB18006091
:10141000EB180060EB180060EB180060EB18006040
:10142000EB180060EB180060EB180060A77D00600F
:10143000EB180060EB180060EB1800604993006047
:10144000EB180060EB180060EB180060EB18006010
:10145000EB180060EB180060EB180060EB18006000
:10146000EB180060EB180060EB180060EB180060F0
:10147000EB180060EB180060EB180060EB180060E0
:10148000EB180060EB180060EB180060EB180060D0
:10149000EB180060EB180060EB180060EB180060C0
:1014A000EB180060EB180060EB180060EB180060B0
:1014B000EB180060EB180060EB180060EB180060A0
:1014C000EB180060EB180060EB180060EB18006090
:1014D000EB180060EB180060EB180060EB18006080
:1014E000EB180060EB180060EB180060EB18006070
:1014F000EB180060EB180060EB180060EB18006060
:10150000EB180060EB180060EB180060EB1800604F
:10151000EB180060EB180060EB180060EB1800603F
:10152000EB180060EB180060EB180060EB1800602F
:10153000EB180060EB180060EB180060EB1800601F
:10154000EB180060EB180060EB180060EB1800600F
:10155000EB180060EB180060EB180060EB180060FF
:10156000EB180060EB180060EB180060EB180060EF
:10157000EB180060EB180060EB180060EB180060DF
:10158000EB180060EB180060EB180060EB180060CF
:10159000EB180060EB180060EB180060EB180060BF
:1015A000EB180060EB180060EB180060EB180060AF
:1015B000EB180060EB180060EB180060EB1800609F
:1015C000EB180060EB180060EB180060EB1800608F
:1015D000EB180060EB180060EB180060EB1800607F
:1015E000EB180060EB180060EB180060EB1800606F
:1015F000EB180060EB180060EB180060EB1800605F
:10160000EB180060F5940060EB180060EB180060C8
:10161000EB180060EB180060EB180060EB1800603E
:10162000EB180060EB180060EB180060EB1800602E
:10163000EB180060EB180060EB180060EB1800601E
:10164000EB180060EB180060EB180060EB1800600E
:10165000EB180060EB180060EB180060EB180060FE
:10166000EB180060EB180060EB180060EB180060EE
:10167000EB180060EB180060EB180060EB180060DE
:10168000EB180060EB180060EB180060EB180060CE
:10169000EB180060EB180060EB180060EB180060BE
:1016A000EB180060EB180060EB180060EB180060AE
:1016B000EB180060EB180060EB180060EB1800609E
:1016C000000000000000000000000000000000001A
:1016D000000000000000000000000000000000000A
:1016E00000000000000000000000000000000000FA
:1016F00000000000000000000000000000000000EA
:1017000000000000000000000000000000000000D9
:1017100000000000000000000000000000000000C9
:1017200000000000000000000000000000000000B9
:1017300000000000000000000000000000000000A9
:101740000000000000000000000000000000000099
:101750000000000000000000000000000000000089
:101760000000000000000000000000000000000079
:101770000000000000000000000000000000000069
:101780000000000000000000000000000000000059
:101790000000000000000000000000000000000049
:1017A0000000000000000000000000000000000039
:1017B0000000000000000000000000000000000029
:1017C0000000000000000000000000000000000019
:1017D0000000000000000000000000000000000009
:1017E00000000000000000000000000000000000F9
:1017F00000000000000000000000000000000000E9
:0818000000102020658E00603D
:1018100072B6264880F30888254880F30988254851
:1018200025490860022080F31488BFF36F8F05F00C
:10183000F9FF05F03AFC4FF0553020491B4A914220
:101840003CBF41F8040BFAE71D49194A91423CBFDD
:1018500041F8040BFAE71B491B4A1C4B9A423EBF56
:1018600051F8040B42F8040BF8E700201849194A14
:1018700091423CBF41F8040BFAE706F011F806F07C
:10188000FDFE154C154DAC4203DA54F8041B884795
:10189000F9E703F0B7FE124C124DAC4203DA54F8EC
:1018A000041B8847F9E705F0F9BF00000004002099
:1018B000000C00200014006008ED00E00000002093
:1018C00000040020D4B10060000C00202C10002087
:1018D000001800205C300020081800600818006024
:1018E000081800600818006092E700F000F8FEE7B2
:1018F0002DE9F04FC1F80CD0D0F80CD0BDE8F08F36
:10190000002383F311882846A047002006F008FA38
:10191000FEE706F05FF900DFFEE7000053B94AB9C1
:10192000002908BF00281CBF4FF0FF314FF0FF30E7
:1019300000F06AB9ADF1080C6DE904CE00F006F8CC
:10194000DDF804E0DDE9022304B070472DE9F0473B
:10195000089D0E4604460F46002B4AD194468C45FE
:10196000B2FA82F260D942B1C2F12003974020FA64
:1019700003F30CFA02FC1F4394404FEA1C4E1FFA7B
:101980008CF6B7FBFEF1230C0EFB117743EA0743FD
:1019900001FB06F098420AD91CEB030301F1FF3763
:1019A00080F01581984240F21281023963441B1A7B
:1019B000A4B2B3FBFEF00EFB103344EA034400FB79
:1019C00006F6A6420AD91CEB040400F1FF3380F0AE
:1019D0000081A64240F2FD806444023840EA0140A2
:1019E000A41B00211DB1D4400023C5E90043BDE87C
:1019F000F0878B4205D90DB1C5E9000100210846E9
:101A0000F5E7B3FA83F1002946D1B34202D382420B
:101A100000F2F580841A66EB030201201746002DC0
:101A2000E5D0C5E90047E2E7002A40F09380A1EB4A
:101A30000C034FEA1C471FFA8CFE0121B3FBF7F69B
:101A400007FB1630230C43EA00430EFB06F09842D6
:101A500008D91CEB030306F1FF3802D2984200F2CA
:101A6000D08046461B1AA4B2B3FBF7F007FB103335
:101A700044EA03440EFB00FEA64508D91CEB04040F
:101A800000F1FF3302D2A64500F2B6801846A4EB5F
:101A90000E0440EA0640A5E7C1F120078B4022FA78
:101AA00007FC4CEA030C06FA01FE20FA07F426FABA
:101AB00007F344EA0E0400FA01F84FEA1C404FEA2B
:101AC0001449B3FBF0FE1FFA8CF600FB1E3349EA03
:101AD00003430EFB06F9994502FA01F20BD91CEB00
:101AE00003030EF1FF3A80F08580994540F2828031
:101AF000AEF1020E6344A3EB0909A4B2B9FBF0F303
:101B000000FB139944EA094403FB06F6A64208D9F0
:101B10001CEB040403F1FF3068D2A64266D9023BF5
:101B2000644443EA0E40A41BA0FB02E6B4427346A1
:101B3000B14652D34FD05DB1B8EB030264EB090458
:101B400004FA07F722FA01F31F43CC40C5E90074F9
:101B500000214CE7C2F1200120FA01F30CFA02FC4B
:101B600026FA01F1964033434FEA1C471FFA8CFED8
:101B7000B1FBF7F007FB1016190C41EA064100FB18
:101B80000EF68E4204FA02F408D91CEB010100F1B2
:101B9000FF382DD28E422BD902386144891B9BB26B
:101BA000B1FBF7F607FB161143EA014306FB0EF102
:101BB000994208D91CEB030306F1FF3814D299426D
:101BC00012D9023E63445B1A46EA004136E73946C1
:101BD000EDE6184602E7F045ADD2BEEB020366EB38
:101BE0000C060138B146A6E74646ECE7034698E7FF
:101BF0004046D3E7D6467EE76444023847E70846C6
:101C00000DE7023E63442DE7704700BF00B50B4C63
:101C100025681446EE681A4685B003460D464CB159
:101C200007490095CDE901143046064900F026F930
:101C300000F012F804490C46F3E700BF000C002046
:101C400050B1006060B100605CB1006008B513463F
:101C50000022FFF7DBFF00BF08B5062000F02EFDD5
:101C6000012006F039FD00BF830730B547D0541E70
:101C7000002A3ED0CAB2034601E0013C39D303F842
:101C8000012B9D07F9D1032C2CD9CDB205EB0525ED
:101C90000F2C05EB054535D9A4F1100222F00F0CED
:101CA00003F1100EE6444FEA121C1A46C2E9005531
:101CB000C2E9025510327245F8D10CF1010214F05C
:101CC0000C0F03EB021204F00F0C13D0ACF1040361
:101CD00023F003030433134442F8045B9342FBD123
:101CE0000CF003042CB1C9B21C4403F8011BA3423D
:101CF000FBD130BD64461346002CF4D1F9E703460E
:101D00001446C0E71A46A446E0E700BF844641EA0D
:101D1000000313F003036DD1403A41D351F8043B63
:101D200040F8043B51F8043B40F8043B51F8043BB5
:101D300040F8043B51F8043B40F8043B51F8043BA5
:101D400040F8043B51F8043B40F8043B51F8043B95
:101D500040F8043B51F8043B40F8043B51F8043B85
:101D600040F8043B51F8043B40F8043B51F8043B75
:101D700040F8043B51F8043B40F8043B51F8043B65
:101D800040F8043B51F8043B40F8043B51F8043B55
:101D900040F8043B51F8043B40F8043B403ABDD2C4
:101DA000303211D351F8043B40F8043B51F8043B66
:101DB00040F8043B51F8043B40F8043B51F8043B25
:101DC00040F8043B103AEDD20C3205D351F8043BF5
:101DD00040F8043B043AF9D2043208D0D2071CBFC1
:101DE00011F8013B00F8013B01D30B8803806046EA
:101DF000704700BF082A13D38B078DD010F0030360
:101E00008AD0C3F10403D21ADB071CBF11F8013BCF
:101E100000F8013B80D331F8023B20F8023B7BE71E
:101E2000043AD9D3013A11F8013B00F8013BF9D249
:101E30000B7803704B7843708B78837060467047E3
:101E4000024B0146186800F0D7BE00BF000C00200E
:101E5000024B0146186800F04FBF00BF000C002085
:101E60000CB400B583B004AB53F8042B019300F01D
:101E700083F803B05DF804EB02B070470EB410B500
:101E800083B005AB064C53F8042B01930146206840
:101E900000F072F803B0BDE8104003B0704700BF17
:101EA000000C0020032A30B415D941EA0004A4072D
:101EB00084460B4604D0541E0FE0043A032A08D986
:101EC0001946604653F8044B5CF8045BA542F4D015
:101ED000F1E760461946541E7AB1431E01390219D2
:101EE00001E09A4209D013F8010F11F801CF6045C3
:101EF000F7D0A0EB0C0030BC7047002030BC70471E
:101F00009368013B002B936005DAD2F818C0634553
:101F100007DB0A2905D01368581C106019700846A1
:101F2000704700F06BB900BF9BB1F8B5134406468B
:101F30000F46541E5D1E01E0AC4208D014F8011F8C
:101F40003A463046FFF7DCFF431CF5D1F8BD0020D0
:101F5000F8BD0020704700BF936810B514461BB948
:101F600018460023636010BD00F098F90023A360B9
:101F70000023636010BD00BF2DE9F04FA1B08B4678
:101F800091461C46049018B1036A002B00F01C8196
:101F9000BBF80C30180740F19580DBF81030002BAF
:101FA00000F090800023CA460D9343F22003ADF861
:101FB00039309AF80030864E07940127002B79D0EB
:101FC000D14604E019F8013F002B00F08580252B55
:101FD000F8D1B9EB0A0840F0828099F80030002B64
:101FE00068D000234FF0FF32CDE9092309F1010940
:101FF00008930B938DF863301E9305E0089A07FA57
:1020000003F31A430892A1464C46052214F8011B1B
:10201000304600F075FFA246831B0028EED1089BD6
:10202000D90644BF20228DF8632099F800101A07C2
:1020300044BF2B228DF863202A2966D1079A1168A4
:10204000043200290792C0F29A800B9199F801108E
:102050002E2970D05F4C0322204600F051FF38B18A
:10206000089B001B4022824013430AF1010A089397
:102070001AF8011B58488DF83810062200F040FF6E
:10208000002800F08280554B002B69D007AA0092EF
:10209000534B04985A4608A9AFF300800390039B62
:1020A000013307D00D9B039A13440D939AF8003027
:1020B000002B85D1BBF80C305B060AD40D9821B0FB
:1020C000BDE8F08F0498594600F06AFF00283FF4FD
:1020D00069AF4FF0FF30F2E7B9EB0A08EAD00AF136
:1020E000FF35CDF81490A946049D01E0A0453ED9E6
:1020F0004C465A4619F8011F2846FFF701FF0234E3
:102100000130A4EB0A04F1D1D4E7A1F13002092A8D
:1021100088BFCA469CD80B9B00E00134217803EBB2
:10212000830302EB4303A1F13002092AF5D92E29DA
:102130000B93A2468ED19AF801102A292FD1079B22
:102140009AF802101A6809920433002A0AF1020070
:102150000793B8BF4FF0FF338246B8BF099379E7C2
:10216000079B073323F00703083307939AE70D997A
:10217000DDF81490414499F800300D912FE7494261
:1021800043F002030B91089360E707AA0092144BF7
:1021900004985A4608A901F029F803907FE7A1F1B5
:1021A00030020023092A09930AF1010A3FF652AFCF
:1021B0001AF8011F03EB830302EB4303A1F1300282
:1021C000092AF5D9099345E700F0FEFBE0E600BFD8
:1021D00090B1006098B100609CB100600000000008
:1021E000291F006010B4044C84461346206810BCBC
:1021F0000A466146FFF7C0BE000C0020F8B50D4648
:102200001446064610B1036A002B37D0A389A26991
:10221000A2601A0719D52369BBB122686169D31A74
:10222000EDB299422F4620DD0133A1680139A1604A
:10223000511C2160157062699A420DD0A389DB0799
:1022400001D50A2D08D03846F8BD2146304600F0A9
:10225000A7FE38B92369E0E72146304600F066FC66
:102260000028F0D04FF0FF37EDE72146304600F070
:102270005DFC0028F6D122680123D6E700F0A4FB1C
:10228000C4E700BF10B4044C03460A46206810BCE3
:102290001946FFF7B3BF00BF000C00209368002B66
:1022A00000F0F6802DE9F04FB1F90CC01CF0080FDA
:1022B00083B0904681460C4631D00B697BB31CF04D
:1022C0000207D8F8006038D00027D4F828B0216A77
:1022D000DFF8BCA23D4655452B463A4628BF53463B
:1022E0004846C5B1D847002840F3C880D8F8083020
:1022F0001B1A07442D1AC8F80830002B00F0B480D0
:1023000055452B46D4F828B0216A28BF53463A4693
:102310004846002DE6D1D6E900750836DBE72146B0
:10232000484600F03DFE002840F0AD80B4F90CC0F6
:10233000D8F800601CF00207C6D11CF0010A63D176
:102340002368A168574618468B46002F58D01CF4C6
:10235000007F00F0B180B9420A4600F2DD801CF433
:10236000906F2FD0216962695D1A02EB420202EB85
:10237000D2726B1C52103B44934292BF93469B46D1
:102380001A461CF4806F00F0E6801146484600F0C3
:1023900033FC002800F0F5802A4621690190FFF700
:1023A000B5FCA289019B22F4906242F08002A281D6
:1023B0005819ABEB0505C4F814B02361A560206083
:1023C000BB463A465146019200F0F4FCA1682368EE
:1023D000019AA1EB0B011A443D46A160226000273F
:1023E000D8F808305B1BAA44C8F80830002B3BD053
:1023F0002368A168B4F90CC018468B46002FA6D1FB
:10240000D6E900A708369EE73846BB463D46002D74
:1024100040D0002845D03A46D4E904C32068A168DA
:10242000AA4228BF2A46604504D901EB030A524557
:1024300000F38280934272DC216AD4F828C05A46A5
:102440004846E047B0F1000A18DDB7EB0A070FD0A5
:102450000120D8F80830A3EB0A03D344A5EB0A0502
:10246000C8F80830002BD2D1002003B0BDE8F08FAF
:102470002146484600F05AFB0028EAD0B4F90C3057
:1024800043F04003A3814FF0FF3003B0BDE8F08F6D
:1024900000207047756833460836002DFAD0D3F80F
:1024A00000B02A460A21584600F02AFD002865D0CF
:1024B0000130A0EB0B07AEE722699A4214D36269A0
:1024C000BA4211D86FF00043BB4228BF3B46A56A11
:1024D00093FBF2F3216A02FB03F348465246A847F6
:1024E000051ECBDD7F1B7BE7B94228BF39460D4671
:1024F00018460A46514600F05DFCA1682368491B56
:102500002B44A16023600029ECD12146484600F00D
:102510000DFB0028E6D0B1E7BB463A4652E75946E4
:10252000019200F047FC019AA3689B1AA3602368FC
:1025300013442360924688E75946524600F03AFC1D
:102540002368534423602146484600F0EFFA0028F0
:102550003FF47BAF92E7484600F084FD0346002835
:102560007FF426AF2169484600F0C6FBB4F90C3071
:102570000C22C9F8002023F0800381E76A1C17466B
:102580004AE70C22B4F90C30C9F8002078E700BF04
:1025900000FCFF7F38B5C46B0CB1002038BD802132
:1025A000054600F029FB0246E86330B1031F7C3288
:1025B00043F8044F9342FBD1EFE74FF0FF3038BDB3
:1025C00030B51F2983B0054608D8C36B0C4653B1FC
:1025D00053F8240043F8242003B030BD16230360D1
:1025E0004FF0FF30F8E78021019200F005FB019ADF
:1025F000E86303460028F3D0011F00F17C050020AA
:1026000041F8040FA942FBD1E2E700BF1F2938B50A
:1026100005461ED8C26B0C466AB152F8213053B140
:10262000012B06D0591C10D0002142F8241020465E
:102630009847002038BD284601F010F82246014690
:102640002846BDE8384000F0F3BF162303600120A0
:1026500038BD162303604FF0FF3038BD1F292AD83C
:1026600038B5C36B0C460546A3B153F8242003EBE1
:1026700084034AB1511C0BD0012A07D00025204603
:102680001D609047284638BD012038BD032038BD65
:10269000022038BD802100F0AFFA0346E86338B16C
:1026A000021F00217C3042F8041F8242FBD1DCE78C
:1026B0004FF0FF3038BD4FF0FF30704738B5134B47
:1026C0001F281D681DD8EA6B044662B152F82030FD
:1026D0004BB1012B05D0591C0FD0002142F820101E
:1026E0009847002038BD284600F0B8FF2246014632
:1026F0002846BDE8384000F09BBF16232B60012020
:1027000038BD16232B604FF0FF3038BD000C002081
:10271000114B1F2870B51E6808D8F36B04460D4690
:102720004BB153F8240043F8245070BD1623336096
:102730004FF0FF3070BD8021304600F05DFA034657
:10274000F0630028F4D0021F00217C3042F8041FFF
:102750008242FBD1E5E700BF000C002038B50B4BEF
:102760001D68EC6B0CB1002038BD8021284600F0BC
:1027700043FAE86338B1031F00F17C0243F8044FC9
:102780009342FBD1EFE74FF0FF3038BD000C002043
:1027900038B5174B1F281D6826D80446E86BA0B132
:1027A00050F8243000EB84004BB15A1C0BD0012BA5
:1027B00007D00025056020469847284638BD0120EF
:1027C00038BD032038BD022038BD8021284600F0E6
:1027D00013FAE86340B1031F00F17C01002243F8C3
:1027E000042F8B42FBD1DBE74FF0FF3038BD00BF39
:1027F000000C002000207047024A0349034800F003
:1028000059BB00BF500C00202D2B0060040C002091
:102810000C4B4168994210B5044601D000F086F98E
:10282000A168094B994202D0204600F07FF9E16887
:10283000064B994204D02046BDE8104000F076B91E
:1028400010BD00BF0018002068180020D01800201C
:10285000002070472DE9F8432A4C2B49DFF8AC9053
:10286000DFF8AC802B4FC4F8381100250423082270
:10287000294604F15C00284EE360C4E90055C4E930
:102880000455A5606566A561FFF7EEF9234B636704
:102890000822294604F1C400C4E90849C4E90A87AA
:1028A000C4E91A55C4E91E552567C4F8CC50C4F8CC
:1028B00080502663FFF7D8F9194BC4F8DC3029465D
:1028C00004F16803082204F59670C4F88830C4E95E
:1028D0002398C4E92576C4E93455C4E93855C4F8C9
:1028E000D850C4F83451C4F8E850FFF7BDF904F1EA
:1028F000D003C4E93D98C4E93F76C4F8F030BDE8A0
:10290000F88300BF00180020F92700608D350060B3
:10291000B5350060F535006019360060090001002A
:1029200012000200F8B5254BD3F838310646002BCB
:102930003CD0234FD7E90134013B04D51DE05A1C9C
:1029400004F1680419D0B4F90C50013B002DF6D104
:102950001C4BE360C4E90155C4E904556566256074
:10296000A5610822294604F15C00FFF77DF9C4E95E
:102970000D55C4E912552046F8BD3D680DB12F46EE
:10298000D8E74FF4D671304600F036F9044680B1EE
:102990000423C0E900530C302946A0604FF4D072E4
:1029A0002546FFF761F93C602F46C3E7FFF752FF6A
:1029B000BFE70C2338603360DDE700BF001800205C
:1029C000500C00200100FFFF036A03B17047044B65
:1029D000044AD3F838310262002BF7D13AE700BF3E
:1029E0000018002011280060704700BF704700BF2A
:1029F000024A0349002000F05DBA00BF500C0020DD
:102A0000F5270060024A0349002000F053BA00BFD6
:102A1000500C002051280060F8B5B1F90C301E07A9
:102A20000C46074639D44A68002A53DDE56A002D72
:102A300031D000223E683A6013F48052216A55D1A9
:102A400001233846A847451C024663D0B4F90C3030
:102A5000E56A216A580705D56368D21A636B0BB122
:102A6000236CD21A00233846A847421C40D00023CA
:102A7000636023692360A389DB0400D56065616B13
:102A80003E6041B104F14403994202D0384600F05F
:102A900033F9002363630020F8BD0E69002EFAD0DD
:102AA0009B070D6808BF4B690E6018BF0023AD1B64
:102AB0008B600CE0D4F828C0216A2B463246384699
:102AC000E047B0F1000CA5EB0C05664406DD002DD7
:102AD000F0DCE0E70A6C002AA8DCDCE7B4F90C3093
:102AE00043F04003A3814FF0FF30F8BD626DB1E7C2
:102AF0003968B4F90C301D29F2D80B4ACA40D50701
:102B0000EED52269226000226260DA04B7D500297E
:102B1000B4D0B4E73B68002B98D01D2B01D0162B06
:102B2000DCD13E60B7E700BF010040200B69B3B1C4
:102B300010B5044682B008B1036A5BB1B1F90C303C
:102B400013B9002002B010BD204602B0BDE810400D
:102B5000FFF762BF0191FFF737FF0199EEE7002011
:102B6000704700BFB8B138B50D4A0369156804460F
:102B70002BB10DB12B6A53B1B4F90C300BB9002055
:102B800038BD21462846BDE83840FFF745BF2846F6
:102B9000FFF71AFFF0E7034A0349044800F08AB937
:102BA000000C0020500C00202D2B0060040C002095
:102BB00070B5104E336805460C46B3B12146284621
:102BC00005F06FFD431C0CD0C41C24F00304A0428C
:102BD00005D0211A284605F064FD013001D02046B9
:102BE00070BD4FF0FF34204670BD194605F059FD09
:102BF0003060E3E73C1900202DE9F843CD1C25F0B7
:102C0000030508350C2D38BF0C25002D064618DBB2
:102C1000A94216D8DFF8DC8000F02AFCD8F804209E
:102C2000A2B1144603E0636822467BB11C462368C8
:102C30005B1BF8D40B2B1FD89442636854D05360AD
:102C40000CE00C2333600020BDE8F88329463046B1
:102C5000FFF7AEFF431C044619D00560304600F074
:102C600009FC04F10B00231D20F00700C21A1CBF51
:102C70001B1AA350BDE8F88361199442256014BF64
:102C80005160C8F80410635163684B60E6E7D8F8F8
:102C900004701FB33C467F68002FFBD12368394680
:102CA000304604EB030905F0FCFC814516D123688E
:102CB000ED1A29463046FFF77BFF01300ED023681E
:102CC000D8F804202B442360536883B1A34203D077
:102CD0001A465B689C42FBD10023B0E70C233360AB
:102CE000304600F0C7FBAEE7C8F80430B6E7C8F8D6
:102CF0000470B3E73C190020002950D038B551F8D2
:102D0000043C0C1F002BB8BFE418054600F0B0FBD4
:102D1000274A13682BB1A3420CD92168601883425B
:102D20002CD0636028461460BDE8384000F0A2BB98
:102D3000A3420FD81A465B68002BF9D111685018CE
:102D4000844217D02CD3636054602846BDE83840D5
:102D500000F090BB11685018A04214D020D8216810
:102D600060188342EFD118685B680844C4E9000327
:102D70005460EAE723680B441360E6E718685B6871
:102D800008442060CDE72068014450188342116058
:102D9000DBD1D3E900040144C2E90014D5E7704750
:102DA0000C232B602846BDE8384000F063BB00BF11
:102DB0004019002088420ED98B1883420BD900EBB2
:102DC000020C002A6ED0624613F801CD02F801CD44
:102DD0009942F9D170470F2A0FD8034602F1FF3C00
:102DE000002A5FD00CF1010C013B8C4411F8012B3F
:102DF00003F8012F6145F9D1704740EA01039B07B1
:102E000051D1A2F1100370B501F1200C23F00F0590
:102E100001F1100E00F11004AC441B095EF8105CC7
:102E200044F8105C5EF80C5C44F80C5C5EF8085CDE
:102E300044F8085C5EF8045C44F8045C0EF1100E83
:102E4000E64504F11004E9D1013312F00C0F01EB57
:102E5000031102F00F0400EB031328D0043C24F00C
:102E600003064FEA940C1E441C1F8E465EF8045B5A
:102E700044F8045FB442F9D10CF1010402F00302FA
:102E800003EB840301EB840102F1FF3C4AB10CF136
:102E9000010C013B8C4411F8012B03F8012F614513
:102EA000F9D170BD704702F1FF3C03469AE7224614
:102EB000EAE700BF2DE9F8430746884616464FF07B
:102EC0000009D6E90154013D10D4A389012B08D98A
:102ED000B4F90E3001332146384602D0C04749EAE2
:102EE0000009013D6B1C04F16804EED13668002E28
:102EF000E7D14846BDE8F88300000000000000006C
:102F000001F0FF01102A2BDB10F0070F08D010F89A
:102F1000013B013A8B422DD010F0070F42B3F6D19E
:102F2000F0B441EA012141EA014122F007047FF0B7
:102F300000070023F0E80256083C85EA010586EA0E
:102F4000010685FA47F5A3FA87F586FA47F6A5FA4A
:102F500087F68EB9EED1F0BC01F0FF0102F0070256
:102F600032B110F8013B013A83EA010313B1F8D101
:102F70000020704701387047002D06BF35460338E2
:102F8000073815F0010F07D1013015F4807F02BF1B
:102F9000013015F4C03F0130F0BC0138704700BF6C
:102FA00038B52F4B1B6805460C4613B11A6A002A28
:102FB0004BD0B4F90C3018071CD5226922B313F09A
:102FC000010107D0616900204942A060A1613AB1C6
:102FD000002038BD980758BF6169A160002AF7D169
:102FE000190658BF1046F4D543F04003A3814FF0B3
:102FF000FF3038BDD9062CD55A0712D4226943F0C8
:103000000803A381002ADAD103F42071B1F5007F0F
:10301000D5D02146284600F02FFAB4F90C302269A9
:10302000CDE7616B51B104F14402914204D02846CE
:10303000FFF762FEB4F90C300022626322690021BE
:10304000C4E9002123F02403D9E71846FFF7BCFCAC
:10305000AFE7092243F040032A60A381C7E700BF1E
:10306000000C00202DE9F041144641B30AB3064696
:103070000D4600F0D5FA8442074602D8B4EB500F53
:1030800013D821463046FFF7B7FD804650B1BC4209
:103090002246294628BF3A46FEF738FE29463046E2
:1030A000FFF72AFE4046BDE8F081A8464046BDE84D
:1030B000F081A046FFF720FE4046BDE8F081BDE864
:1030C000F0411146FFF798BD2DE9F84F92461F4693
:1030D0000A698B68DDF828909A42B8BF1A46CAF888
:1030E000002091F843300C46064613B10132CAF86D
:1030F0000020226891065FD5DAF800300233CAF862
:103100000030226812F0060F11461DD1E168994285
:10311000D8BF114618DD4FF0000804F1190B05E087
:10312000E568DAF80030ED1A45450CDD01235A4612
:1031300039463046C847013008F10108F0D14FF058
:10314000FF30BDE8F88F216894F84330003B18BF8A
:1031500001238A060AD5E1185A1C302081F8430061
:10316000224494F8451082F84310023304F14302DC
:1031700039463046C8470130E1D02368DAF80050BC
:10318000216903F00603042BD4E902201BD08A42F4
:1031900020DD4FF00008521A90441A34002501E057
:1031A000454517DA0123224639463046C8470130E3
:1031B00005F10105F4D1C2E712F0060F0DD0003B76
:1031C00018BF0123D2E7401B8A4220EAE078E2DC04
:1031D0000028E2DC0020BDE8F88FE168DAF8003072
:1031E0009942D8BF114696DCAEE700BF2DE9F04703
:1031F000174684B00A7E0C9D0C460646984601F19F
:10320000430C002A35D0A2F15803D9B2202969D83D
:10321000202B67D8DFE813F0E60066006600660042
:103220006600660066006600660066006600AC0028
:10323000700066006600660066007000660066004A
:103240006600660021008300C60066006600B600C6
:103250006600830066006600EC002B6822686169E6
:10326000181D286010061B6802D4520600F1E08089
:1032700019600023E1462361CDF800803B4603AA94
:1032800021463046FFF720FF013020D023694A460F
:1032900039463046C047013019D02368E068DDF870
:1032A0000C909B0718D5484516DD002504F1190A36
:1032B00004E0E068A0EB0903AB420DDD01235246B8
:1032C00039463046C047013005F10105F1D14FF0D4
:1032D000FF3004B0BDE8F0874845B8BF484604B0A9
:1032E000BDE8F08784F84220012004F14209002360
:1032F000206184F84330BFE72A682368111D18064F
:10330000296002D4590600F1958010680146002812
:103310006268C0F2938054484FF00A0E15E02068AE
:103320002B6810F0800F53F8041B02D1400648BFF1
:1033300089B26F2A4C482B6014BF4FF00A0E4FF031
:10334000080E0023626884F84330002AA26051DB33
:10335000236823F00403236000294BD1002A7BD18A
:10336000E146BEF1080F56D0ACEB0903236183E7B9
:103370002B681A6804332B6004F1420984F8422058
:103380000120B4E72B686268191D2960D3F800900A
:1033900000214846FFF7B4FD002863D0A0EB0900E8
:1033A0006060A4E7236843F02003236078222F485D
:1033B00084F845202A6813F0800F52F8041B03D1CB
:1033C00013F0400F18BF89B22A60DA0744BF43F0F8
:1033D0002003236019B9236823F0200323604FF0F2
:1033E000100EAEE7582384F845301F482368E1E704
:1033F0002368DBE77546E146B1FBF5F305FB131ADD
:103400000A46AA4210F80A1009F8011D1946F3D21B
:10341000BEF1080FA8D12368DD07A5D5626823692E
:103420009A42A1DC302309F8013C09F1FF399BE7FE
:1034300019801EE7B2F90010084668E72D20002A1F
:10344000A26084F8430002DB23F0040323600A2512
:1034500005484942AE46CEE7037884F8423004F18D
:1034600042097EE7606842E7A4B10060B8B100603D
:10347000704700BF704700BF70B5B1F90C300C4603
:10348000990796B007D504F147030122C4E9043235
:10349000236016B070BDB4F90E100029054629DB73
:1034A0006A4605F00BF9002822DB4FF480612846BC
:1034B000019EFFF7A1FB88B3A389206043F080033E
:1034C00006F47046A381B6F5005F4FF48063C4E94B
:1034D0000403DED1B4F90E10284605F0FBF80028ED
:1034E000D7D0A38923F0030343F00103A381D0E7DE
:1034F000B4F90C3013F0800F14BF40264FF48066EF
:1035000031462846FFF778FB40B1A389206043F09D
:103510008003C4E90406A38116B070BDB4F90C3071
:103520009A05B6D423F0030304F1470243F00203E3
:103530000121C4E90421A3812260AAE770B50C46E9
:10354000B1F90E10002996B015461E460FDB6A46EB
:1035500005F0B4F800280ADB019B03F47043A3F5DF
:103560000053B3FA83F34FF480625B0908E0A28949
:1035700012F0800F4FF0000314BF40224FF480621E
:10358000002033602A6016B070BD00BF10B50C4635
:10359000B1F90E1005F07AF8002803DB636D0344DF
:1035A000636510BDA38923F48053A38110BD00BFC0
:1035B000002070472DE9F0410C46B1F90C101F4670
:1035C000CB05054616460BD421F48051A1813B461C
:1035D000B4F90E1032462846BDE8F04105F05DB85A
:1035E000B4F90E100223002205F055F8B4F90C10BE
:1035F000EAE700BF10B50C46B1F90E1005F04BF824
:10360000B4F90C30421C0EBF23F4805343F48053B2
:103610006065A38110BD00BFB1F90E1005F03FB881
:1036200051F8043C181F002BBCBF0B58C018704742
:1036300070B50C46084D03460026204611461C4630
:103640002E6005F051F8431C00D070BD2B68002B94
:10365000FBD0236070BD00BF4419002005F04CB8BA
:1036600010B5074C01F046FE204606220D2105F05C
:1036700091FC20460122BDE810400D2105F07CBCE4
:1036800000400042044A506842F6DF6153681B1A4A
:103690008B42FBD9704700BF001000E003280DD813
:1036A0000E290BD8062A09D8C1EBC101692303FBF7
:1036B00000100244024B33F812007047012070479B
:1036C00094A80060FFF7EABFA0F58072B2F5F85F3A
:1036D00003461FD213F4805F00F4007103F480628C
:1036E000C0F3002003F400630AD0000109B140F0E8
:1036F00020000AB140F040006BB140F080007047FC
:1037000009B140F002000AB140F004001BB140F0E2
:10371000080070470020704710B50C46FFF7D4FF33
:103720002346BDE810401847A0F1E003072B10B571
:10373000044600D940B905492046FFF7EDFFE0B245
:10374000BDE8104000F0E4B90149F6E7193D00601A
:103750003D41006010B50446C0B200F05BFAA4F130
:10376000E003072B00D92CB903492046BDE81040DF
:10377000FFF7D2BF0149F8E72B3D00604F410060E1
:1037800038B505460C46FFF7CFFF1CB92846FFF7B2
:10379000E1FF38BD0A20013C04F0C7FAA4B2F4E707
:1037A00008B539280CBF50210021FFF7E9FF08BDFB
:1037B000012070470120704708B5FFF7FBFF08BDE7
:1037C000012070470120704708B5FFF7FBFF08BDD7
:1037D0007047704708B5FFF7FCFF08BD0120704730
:1037E0007047704713B502AB03E903000F4B1B781A
:1037F000B3B99DF8053073B16AB100F0EBFD044632
:103800000146009800F0B2FD0099204602B0BDE8E4
:10381000104001F0C9BB009800F0C4FD0446F3E776
:10382000009800F0D7FD0099F0E700BF5019002084
:10383000034610B400885C880A4640EA0440998830
:1038400010BCFFF7CFBF10B501210446FFF7F0FF12
:103850002146FFF7ADFF30B101212046FFF7E8FF19
:103860002146FFF7A9FF00F0010010BD38B5002187
:103870000446FFF7DDFF21460546FFF7A9FF214675
:103880002846FFF7A7FF38BD38B501210446FFF7EA
:10389000CFFF21460546FFF793FF40B32146284658
:1038A000FFF792FF18B32146284601F0A3FFF0B1BD
:1038B0002146284602F004FFC8B12146284602F0FE
:1038C00071FAA0B12146284602F046FA78B12146A5
:1038D000284601F06DFC50B12146284601F078FCE5
:1038E00028B121462846BDE8384001F08EBC0020B2
:1038F00038BD012303FA00F080B200F09ABC10B585
:1039000004460120A04080B201F066F92046BDE8DF
:103910001040FFF7EEBF0120704708B5FFF7FBFF2F
:1039200008BD10B5044600F033FC2046FFF756FFF3
:103930002046FFF7F2FFBDE8104040F6C41004F047
:10394000F4B908B50120FFF7ECFFBDE8084003F02B
:10395000B4B908B50020FFF7E4FFBDE8084003F064
:10396000B3B908B5FFF73CFF03F009F9BDE808401B
:1039700000F07AB808B500F07CF8FFF732FFBDE838
:10398000084003F001B9012070470000C24310B5A0
:10399000D4B212F0010218BF01221A214FF0844064
:1039A00005F0EAFA14F002020C4818BF01220C21BB
:1039B00005F0E2FA14F0040218BF012219214FF0B9
:1039C000844005F0D9FA14F0080218BF0122BDE8BE
:1039D000104018214FF0844005F0CEBA004000425C
:1039E00038B50546FFF7CFFF044610B12846FFF76C
:1039F000CDFF204638BD000010B50622174C1A2115
:103A00004FF0844005F0C6FA01221A214FF084409D
:103A100005F0B2FA204606220C2105F0BBFA20463A
:103A200001220C2105F0A8FA062219214FF084404A
:103A300005F0B0FA012219214FF0844005F09CFAFC
:103A4000062218214FF0844005F0A4FABDE810408A
:103A5000012218214FF0844005F08EBA0040004248
:103A600008B5FFF7BDFF08BD08B50020FFF7F8FF58
:103A700008BD08B502F080FEFFF7F2FF08BD0000A8
:103A800010B502F079FE074B1A788242044607D03F
:103A9000187003F0DBF8044B18602046FFF7E0FFD6
:103AA00010BD00BF481900204C1900201FB56C46FE
:103AB00084E803009DF805300BB100F03BFF0023C4
:103AC000ADF80E3094E80300ADF80C10C9B20290C6
:103AD00002AC29B994E8030000F07AFE04B010BDEE
:103AE0002046FFF7B0FE0028F4D1F7E70379012B59
:103AF00002D1008800F090BC704708B529B102F0EF
:103B0000E7FABDE8084002F0C1BB02F033FBF8E77A
:103B100010B5044600287AD0822813D102F036FE70
:103B2000810774D4392002F027FF00F0A1FF4FF481
:103B3000487004F0FAF8392002F03CFFBDE810406C
:103B400000F096BF83280ED102F020FEC2075ED49B
:103B5000532002F011FF00F08BFF4FF47A7004F055
:103B6000E4F85320E8E784280ED102F00FFE430763
:103B70004DD4472002F000FF00F07AFF4FF47A7036
:103B800004F0D3F84720D7E7031FDBB2A02B10D8EF
:103B900002F020F800283AD1204602F07DFE20B144
:103BA000204602F007FF00F063FF204602F0E4FE2B
:103BB000C4E700F12003DBB2072B07D800F00704AD
:103BC0000120A040C0B200F083FEB7E700F15B0324
:103BD000DBB2022B05D82438BDE8104080B202F0D9
:103BE000FBBD00F15803DBB21A2B06D8084ABDE82A
:103BF000104032F8130002F00BBE3334E4B2122C42
:103C000005D802F065FABDE8104002F03FBB10BDD8
:103C100020AC006008B5034600285AD082280FD196
:103C200002F0B4FD810754D5392002F0A5FE00F062
:103C30001FFF392002F0BEFEBDE8084000F018BFAB
:103C400083280AD102F0A2FDC20742D5532002F018
:103C500093FE00F00DFF5320ECE784280AD102F018
:103C600095FD430735D5472002F086FE00F000FFA2
:103C70004720DFE7021FD2B2A02ADBD900F12002E1
:103C8000D2B2072A07D800F0070301209840C0B23B
:103C900000F026FED0E700F15B02D2B2022A04D87F
:103CA000BDE80840002002F097BD00F15802D2B2F2
:103CB0001A2A04D8BDE80840002002F0A9BD333319
:103CC000DBB2122B05D802F055FABDE8084002F02D
:103CD000DDBA08BD70B50C460546FFF719FF8CB17B
:103CE00042F2107640F2E73000214FF47A7200235E
:103CF000E6FB0401FDF712FE04F017F82846FFF773
:103D000089FF70BD0120F7E708B539280CBF5021A5
:103D10000021FFF7DFFF08BD08B528B100F0D8FD8E
:103D2000BDE8084000F0A4BE08BD08B528B100F009
:103D3000D7FDBDE8084000F09BBE08BD2DE9F84363
:103D40008779457981460C4600F0B2FD3F09064669
:103D500008B32E46FDB1C4F3072303F0F002402A56
:103D60000CD0E1B201F12002D2B2072A25D903F02A
:103D7000E003202B02D101291FD907B3A54B5E78A0
:103D800016F0040607D0022000F0AEFE00F090FD11
:103D900080F00106F6B2C4F303330B2B3DD8DFE805
:103DA00013F01000100054005400AE00C5003C0099
:103DB0003C00CA002E01420142010026EBE73E46CC
:103DC000E9E7C4F30723C4F303270F2B88BF3F01A0
:103DD000E4B285B157B104F12003DBB2072B3846BA
:103DE00000D92CB900F074FD00F042FE20464CE0F2
:103DF00000F090FDF8E72046FFF70CFF6FB104F1EB
:103E00002003DBB2072B384600D914B900F068FD57
:103E100001E000F087FD00F02BFE002E00F059813C
:103E200000F03EFD10F0010040F0538189F80500DC
:103E300000F030FD00F032FA484600F061F900F081
:103E400029FDBDE8F84300F035BAC4F3072303F0B9
:103E5000F003C4F30328202BE4B218BF4FEA08187C
:103E60002CB1012C34D0002D3CD0DFB1BEE7694B22
:103E70005B78580714D45DB1B8F1000F04D0404608
:103E800000F026FD00F0F4FD0020FFF741FEC4E73E
:103E90002846FFF7BFFEB8F1000FBED04046B5E799
:103EA00055B11FB94046FFF737FFB6E7012FB4D130
:103EB000404600F065FDB0E7002FAED14046FFF769
:103EC00034FF404600F06AFD404600F045FDA4E79F
:103ED00015B1052FA1D8E5E7042F9ED84046FFF77E
:103EE00024FF9AE7002FF9D0392C0CBF4FF448700B
:103EF000012003F01AFF2046FFF78CFE8DE714F433
:103F0000406FC4F3812307D0012B86D165B1C4F380
:103F1000090002F07DFC80E725B1C4F3090002F03E
:103F20005BFC7AE72846FAE72846F2E72946E0B242
:103F3000FFF7E3FD71E714F4407F2ED1F5B9C4F328
:103F40004213E1064FEA830348BF0F25DBB248BFA7
:103F50009D4004F00F0248BFED4302FA03F2C4F3A0
:103F6000812448BFADB292B2022C45EA02000ED0C5
:103F7000032C0FD0012C07D000F066F902F0FCFBF7
:103F8000BDE8F843FFF76CBD00F056F9F6E700F026
:103F900063F9F3E700F04DF9F0E7C4F3012215B33C
:103FA000D207EBD5C4F3421314F010004FEA830399
:103FB00018BF0F20DBB218BF984004F00F0218BFE3
:103FC000C04302FA03F2C4F3812418BF80B292B254
:103FD000022C40EA02000CD0032C0DD0012C05D09D
:103FE00000F086F9CAE7012AC8D9DBE700F078F9C2
:103FF000C4E700F085F9C1E700F03CF9BEE7E6B29E
:10400000C4F3032445B1204600F048F93046FFF7D9
:1040100083FEB3E7002F00203046FFF786FE2046E0
:1040200000F048F9AAE7E6B2A6F1F003042B38D86D
:10403000DFE803F003210D141D0035B1042F9DD8D6
:10404000C4F3042000F040F998E7052FF7E7C4F324
:104050000420002DE4D100F021F98FE725B1C4F34D
:10406000042000F014F989E700F00EF986E71A4BF6
:104070005B785B0704D4C4F30420002DD0D0EAE7BA
:104080002DB10321C4F3042000F00CFD76E70120DC
:1040900000F02AFD012F7FF671AF022000F024FD11
:1040A0006CE73DB11FB13046FFF732FD66E7C4F360
:1040B0000420D0E757B1392E0CBF4FF448700120CF
:1040C00003F033FE3046FFF7A5FD57E7C4F30420A5
:1040D000A6E7BDE8F88300BF002F002038B50188AF
:1040E0000446407900F0A4F9054600F011F900F00B
:1040F0009FF829462046BDE83840FFF71FBE000064
:10410000037910B50446B3B1FFF7BEFB68B900F000
:10411000CFFB80B1637973B1074B5B785B070AD53E
:10412000BDE81040022000F0DFBC2046FFF7D6FFBC
:104130002046FFF79BFB10BD002F002008B528B1DB
:1041400000F0E8FBBDE8084000F092BC08BD08B5EF
:1041500028B100F0E7FBBDE8084000F089BC08BDCD
:1041600008B5002002F038FB002002F051FB00F0FF
:10417000E1FB00F07DFC02F0A5F8BDE8084002F08C
:1041800085B808B502F034FCBDE80840FFF7E8BF89
:1041900008B500F0B3FBBDE80840FFF7F2BFC0F37D
:1041A0000333062BC2B213D094BF0E33063303F091
:1041B0000F03012B10D8F02A10D004D8E72A8CBFA7
:1041C000002001207047F42A14BF0020012070470E
:1041D000E72A03D9F12AF7E700207047012070474A
:1041E00008B50346007930B1188800F015F9BDE82C
:1041F0000840FFF7D4BF08BD82B002AB03E903005B
:1042000002B0704782B002AB03E9030002B070470E
:10421000704708B5FFF7FCFF08BD704708B5FFF70A
:10422000FCFFFFF7F6FF014B188008BD8C1900203A
:104230007047FFF7F3BF0000024B1B881843FFF7DE
:10424000EDBF00BF8C190020024B1B881840FFF700
:10425000E5BF00BF8C190020024B1B885840FFF7B8
:10426000DDBF00BF8C190020704708B5FFF7FCFFC9
:1042700008BD704708B5FFF7FCFFFFF7F6FF014BDD
:10428000188008BD8A1900200020FFF7F3BF012322
:1042900003FA00F080B2FFF7EDBF0000012303FA3C
:1042A00000F0034B1B88184380B2FFF7E3BF00BF49
:1042B0008A190020034A01238340108820EA030062
:1042C000FFF7D8BF8A190020012303FA00F0034B3F
:1042D0001B88584080B2FFF7CDBF00BF8A1900206D
:1042E000024B1B881843FFF7C5BF00BF8A19002087
:1042F000024B1B881840FFF7BDBF00BF8A19002082
:10430000024B1B885840FFF7B5BF00BF8A19002039
:10431000704701F0070330B5C908012402EB8102A0
:104320009C40E4B2013A002112F8015F20FA01F347
:1043300043F300036B40234001315D4004291570B5
:10434000F2D130BD10B5002200F00704C00801EB27
:10435000800110468B5CE34003F00103934001327F
:104360001843042AC0B2F5D110BD000017B4ADF84F
:104370000400C0F307200E280C460DD89DF8043029
:10438000062B09D8C0EBC0000344054A99B2204669
:1043900003B010BCFFF7BDBF03B010BC704700BF37
:1043A0005119002082B0ADF80400C0F307200E2898
:1043B0000BD89DF80430062B07D8C0EBC00018447A
:1043C000034980B202B0FFF7BDBF002002B07047C2
:1043D000511900200E4B73B51D880E4BADF804002B
:1043E0001B881D43ADB20F2445FA04F3DB0705D447
:1043F000013CF9D20026304602B070BDE6B2019908
:10440000304600F0E2FD80B20128F1D0F3E700BFB2
:104410008A1900208C19002007B5ADF80400019816
:10442000FFF7D8FF019903B05DF804EB00F0CDBDB4
:1044300013B5104BADF804101B782BB1019802B0E6
:10444000BDE81040FFF7E8BF70B10198FFF7C2FF69
:10445000044601460198FFF789FF0199204602B002
:10446000BDE8104000F0B1BD0198FFF79BFF044686
:10447000F3E700BF50190020F8B50C4B0C4E1C7828
:104480000C4D3378A34200D1F8BD05EBC40335F8D9
:1044900034005F889A88D98840EA074042EA01419F
:1044A0000134FFF7AFFE04F00704EAE78E1900209D
:1044B0008F19002090190020064B10B418885C88D2
:1044C0009A88D98840EA044042EA014110BCFFF7CB
:1044D00099BE00BFD01900201B48F8B583790F2B77
:1044E0000AD8437943B1194B194A1B7815780688C5
:1044F0004788184CAB4200D1F8BD04EBC3011AB297
:104500000979E1B134F83220B24218D104EBC30189
:104510004A79A2B94A88D21B92B2C72A0FD88379A6
:10452000012262F3071383718B79074862F3071343
:104530008B71FFF7E5FDBDE8F840FFF79DBF013344
:1045400003F00703D6E700BFD01900208E19002022
:104550008F19002090190020F0B50D4B0D4C1B78E1
:1045600026780D4CB34201D10020F0BD04EBC30509
:104570006F788F4206D114F83370874202D16D797B
:10458000954203D1013303F00703EBE70120ECE789
:104590008E1900208F190020901900202DE9FF4767
:1045A0008A4DE9460446014606224846FDF7AEFB21
:1045B0002B7994F8008061786779B4F802A02279A9
:1045C000C3B9002A00F0C780002F00F0F680204613
:1045D000FFF706FE002800F0F0800822214628465A
:1045E000FDF794FB2846FFF781FAFFF775FFFFF709
:1045F00063FFB0E06B886E79AAEB03039BB2002ED9
:1046000000F0AB80C72B00F28480002A00F0A3806A
:10461000AB79288822880F2B4ED8904211D1002FD9
:1046200045D1012262F30713AB71FFF745FF28461E
:10463000FFF766FDAB79A3710025284604B0BDE8FD
:10464000F087A7BB3A464046FFF786FF4046FFF794
:1046500083FF05460028EFD10098FFF7DDFEC0F389
:104660000332032AC3B208D8012A10D910F4706F9C
:1046700012D0A2790F2A0FD8DFE7063202F00F021C
:10468000012A0ED92046FFF73BFD3546D5E710F449
:10469000706F01D0002BD0D02033DBB2072BCCD9E8
:1046A000F0E7EF2BC9D90F33DBB2022BF7E7AB7979
:1046B00043F00103AB71BFE790420AD14FB92046E6
:1046C000A371FFF71DFD082221462846FDF71EFBBA
:1046D0008DE72046FFF784FD00286ED0002F6CD0B8
:1046E000AB791F2B0FD92A88ADF808202A798DF8CD
:1046F0000C2002A80022ADF80AA08DF80D208DF83C
:104700000E30FFF7FDFC082221463048FDF7FEFA87
:104710006BE7AB790F2B0ED899E80300FFF76CFD20
:104720002846FFF7EDFC082200212846FDF79CFAF9
:10473000FFF7C2FE80E772B1298822889142C8D172
:10474000002FC6D12046A371FFF7DAFC08223946B4
:104750002846FDF789FA01256FE7C72B31D8002AD3
:10476000F9D057B32A8823889A421DD1AB79DA074A
:1047700014D40F2B12D9A37103F0F003F02B06D041
:10478000A379C3F30312013262F30713A371204626
:10479000FFF7B6FC0D480822214697E7082221467C
:1047A0000A48FDF7B3FAD6E72046FFF719FD0028BF
:1047B000A9D1AB7943F00103AB712046FFF7A0FC10
:1047C000C9E799E80300FFF717FDACE7D01900200F
:1047D000F0B585B06C4684E803002046FFF7DEFEA6
:1047E000284F294D064668B19DF804301BB194E866
:1047F0000300FFF707FD254C28783B78834226D13C
:1048000005B0F0BD94E8030002AB83E803009DF817
:10481000041038782A780029EDD0441C04F00704ED
:1048200094420AD01946194B082203EBC000FDF749
:104830006DFA3C70FFF720FEDDE7FFF7A9FC0822C8
:10484000314613483E702E70FDF70EFAD3E704EBA5
:10485000C000FFF7A3FE0028D2D02B7834F8330035
:1048600004EBC3035E889A88D98840EA064042EA8E
:104870000141FFF7C7FC2B78013303F007032B70CE
:10488000BAE700BF8F1900208E1900209019002070
:10489000D0190020014B1878C0087047001A00207A
:1048A000024B187800F00700704700BF001A002084
:1048B000034B187810F0070018BF0120704700BFA5
:1048C000001A0020014B1878704700BF2C1A0020F6
:1048D000024B1A7810431870704700BF2C1A002042
:1048E000024A137823EA0003137070472C1A002041
:1048F000014B1870704700BF2C1A0020014B00229A
:104900001A7070472C1A0020014B1878704700BFAE
:104910002B1A0020024B1A7810431870704700BF02
:104920002B1A0020024A137823EA00031370704701
:104930002B1A0020014B00221A7070472B1A0020FE
:10494000014B1878704700BF021A0020704708B565
:10495000FFF7FCFF08BD000008B5054A13780342C5
:1049600004D023EA00001070FFF7F1FF08BD00BF7C
:10497000011A0020704708B5FFF7FCFF08BD0000D2
:1049800010B505490B7830EA030403D003430B70DC
:10499000FFF7F1FF10BD00BF021A002008B5054A5D
:1049A0001378034204D023EA00001070FFF7E3FFFE
:1049B00008BD00BF021A002008B5044B1A781AB1CE
:1049C00000201870FFF7D7FF08BD00BF021A0020B3
:1049D00010B5084B1C78084B1B781C43074B1B7801
:1049E0002BB11C4301F032FF08B1FFF7E5FF204671
:1049F00010BD00BF2C1A00202B1A0020021A002024
:104A000038B50B4C2568FFF7E3FF28702468094987
:104A100008222046FDF746FA48B1214605480822FB
:104A2000FDF774F92046BDE8384001F0B3BE38BD4B
:104A3000600C0020F819002038B50B4C2568FFF7F2
:104A4000C7FF68702468094920222046FDF72AFA2A
:104A500048B1214605482022FDF758F92046BDE817
:104A6000384001F0A1BE38BD5C0C0020D8190020F0
:104A700008B501F079FE40B1064B93F90030002BE8
:104A800003DABDE80840FFF7D7BFBDE80840FFF7ED
:104A9000B7BF00BF002F0020704708B5FFF7FCFF2D
:104AA00008BD0000094A5278520710B50AD5084CD3
:104AB00041EAC0012170FFF7F1FB2078C008FFF741
:104AC000ECFF10BDBDE81040FFF7E8BB002F002051
:104AD000001A002008B5034B00201870FFF7DDFF17
:104AE00008BD00BF001A002008B50A4A137823EA5F
:104AF0000000107042070CD198420AD0064B5B7838
:104B00005B0706D5C008FFF7D5FBBDE80840FFF7F7
:104B1000E1BF08BD001A0020002F0020024609480E
:104B200008B54378C3F38001914209D062F3820350
:104B3000437000F055F8BDE808400220FFF7D4BFED
:104B400008BD00BF002F0020044B5878C0F3800040
:104B500080F0010000F00100FFF7E0BF002F00200F
:104B60000120FFF7DBBF0020FFF7D8BF002000F0D7
:104B7000B1BB08B5002000F0A9FBFFF7F7FF08BDA7
:104B80001FB500F05CFB002400F066FB01A88DF867
:104B9000044000F078FB0A4B0120188000F07CFBF9
:104BA0004FF4A05303A8ADF80C3000F080FB02A82E
:104BB0008DF8084000F086FBFFF7DBFF04B010BD66
:104BC0008C190020FFF7DCBF00F04BBB00F03ABBB4
:104BD00000F052BB00F05BBB00F05EBB00F060BBBE
:104BE00000F065BB00F067BB00F06CBB00F076BB6B
:104BF00073B50C4D02F05CF82B88834204460ED04E
:104C00000026ADF8006002F053F8ADF80460ADF88E
:104C1000020002AB13E90300FEF748FF2C8002B04C
:104C200070BD00BF2E1A002008B502F00FF8024B2D
:104C30001860024B186008BD441A0020401A00207A
:104C40007047704708B5FFF7FCFF08BD704708B50F
:104C5000FFF7FCFFFFF7F6FF08BD704708B5FFF749
:104C6000FCFF08BD704708B5FFF7FCFFFFF7F6FF34
:104C700008BD01207047000008B5054800F034FB6E
:104C800000F04EFDFFF7DCFFBDE80840FFF7DFBF97
:104C9000AD5100600120704708B5FFF7FBFF08BD6C
:104CA00070477047704708B5FFF7FAFFFFF7F9FF45
:104CB000FFF7F8FF08BD000008B5FFF787FF08B948
:104CC000FFF780FF0748FFF783FF0748FFF786FFDE
:104CD000FFF780FFFFF7ADFA044B1888BDE80840E6
:104CE000FFF7C3BA481A0020002F00208A190020BD
:104CF00008B501F0A9FF00F08BFBFFF7DDFFFEF721
:104D00007BFE00F0D7FDBDE80840FFF7ACBF000018
:104D10002DE9F04F85B0FFF7ACFF40B9FFF768FF12
:104D200001F0F8FA05B0BDE8F04FFEF7A9BE2D4F2F
:104D300000F088FB3E46002420460134E4B216F819
:104D4000015B00F0DDFA0F2C48D08542F4D0264BF1
:104D50001B789B0701D500F0D9FAFFF79DFF4FF0B4
:104D6000000800904FF0010A5FFA88F9484600F009
:104D7000C7FA17F8013B9842044627D04340DBB2FC
:104D8000002501260DF1080B334217D0009AAAB175
:104D900001938DF808508DF8099001F089FF344295
:104DA00014BF01210021ADF80A008DF80CA08DF888
:104DB0000D109BE80300FEF779FE019B0135EDB273
:104DC0007600072DF6B2DFD107F8014C08F1010893
:104DD000B8F10F0FC8D1FFF727FFA1E78542B6D181
:104DE0009CE700BF301A0020481A002038B500F0B8
:104DF000F7F8B0F5A44F044643D2B0F5A04F80F0C9
:104E0000AE80DF2816D8CC2800F28C80A7280AD8DC
:104E1000A42879D8012804D0031F9BB2A12B28BF56
:104E20000024204638BDA0F1A8039BB21A2B71D9EB
:104E30000024F6E7B0F5804F19D2B0F5005F80F09E
:104E4000A180E728EDD9A0F580739BB2B3F5F85F98
:104E5000EED2C0F3072000F047F90546E0B200F0BB
:104E6000BFF82D0205F4F85540EA050450E0C0B241
:104E700000F0B6F804F47064204340F4204084B29B
:104E8000CFE7B0F5A54F22D245F25F23984253D821
:104E900045F23F2398420FD845F21F23984244D849
:104EA00000F003040123C0F38502A34043EA421348
:104EB00043F40D439CB2B4E700F003040123C0F3B4
:104EC0008202A34043EA421343F40C43F2E745F263
:104ED000BF2398420AD845F29F23984200F01F0052
:104EE00035D84AF2F40343EA00249AE7A0F5A54333
:104EF000403B9BB21F2B9BD8040204F4F85444F4AB
:104F0000204444F0F0048CE7A0F1240444F48044ED
:104F1000A4B286E75834234BE4B233F8144044F487
:104F200088447EE740F4A044F2E700F01F044AF210
:104F3000F10343EA042474E700F003040123C0F3FF
:104F40008202A34043EA421343F40A43B2E700F06B
:104F5000CBF8040204F4F85444F4005461E700F080
:104F60001F0000F0C1F8C30648BF0001C4F343149A
:104F70004FEA04244CBF00F0F00000B2044344F4B4
:104F80001044C5E7C0F3042000F0AEF80546E0B2D7
:104F900000F026F82D0205F4F855054345F40055B8
:104FA000ACB23EE756AC006082B0ADF80410C1F37D
:104FB00007210E2906D89DF80420062A02D802B03F
:104FC000FEF780BB002002B0704707B5ADF80410B3
:104FD0000199FFF7E9FF03B05DF804EBFFF706BFA7
:104FE000E7284FD8DF2807D8312864D00ED82928E1
:104FF00057D02A2866D07047A0F1E003072B41D88C
:10500000DFE803F01540232831403C41392804D023
:10501000822802D035283FD07047324B1A78920749
:105020001FD15B7813F0080F18BF292070472D4A55
:105030001378D9074DD4527812F0010F22D013F013
:10504000100F14BF0020E3207047264B1B7813F08D
:10505000040FF3E7234A137859073CD45278D20758
:10506000EDD5E02070471F4B5A7891070AD51B7881
:1050700013F0100F14BF0020E7207047194B1B7866
:105080001A07F5D47047174A1378190725D45278B0
:105090009107EDD5E4207047124B1B7813F0200FD9
:1050A000C2E7104B1A78920619D45B7813F0080FF8
:1050B00018BF392070470B4B1B7813F0400F18BFF7
:1050C0002A207047074B1B7813F0400F18BF312080
:1050D000704739207047E2207047E620704735203E
:1050E000D0E700BF002F002010B52F4C21784B07D0
:1050F00013D500F01402A2F1040C00F01803DCF147
:10510000000242EB0C02A3F1080CDCF1000343EBBC
:105110000C039A4218BF80F00C000B0713D500F067
:105120001402A2F1140C00F01803DCF1000242EBAF
:105130000C02A3F1180CDCF1000343EB0C039A42C0
:1051400018BF80F00C006478E30713D500F011025B
:1051500002F1FF3C00F01803DCF1000242EB0C020C
:10516000A3F1080CDCF1000343EB0C039A4218BFD7
:1051700080F00900A30711D500F0110200F0180318
:10518000A2F111046242A3F1180C6241DCF10003A8
:1051900043EB0C039A4218BF80F00900CB0648BFCE
:1051A00000F0E70010BD00BF002F00200020704776
:1051B000A0F5A543603B1F2B10B507D84C791CB94F
:1051C00000F01F00FEF79BFB204610BD0124FBE70B
:1051D00008B503464879B0B147F65B4293420FD019
:1051E00047F65C42934204D047F65A42934204D0B9
:1051F00008BDFFF7A9FC0020FAE7FFF7B1FCFAE7CA
:10520000FFF7B1FCF7E70120F2E708B5034648795C
:1052100098B147F6014293420CD047F603429342BD
:1052200006D0B3F5F84F02D1FEF78BFB002008BD86
:10523000FFF7CAFCFEF78DFBF8E70120F7E7002037
:1052400000F078BA08B5002000F001FA4FF6E363E9
:10525000C31A5842584108BD4FF6E361002000F0E0
:1052600043BA08B5002000F065FABDE808404FF6E3
:10527000FF71002000F038BA10B50446022000F09B
:10528000D7F9207010BD0178022000F01FBA08B5D0
:10529000032000F0CDF908BDC1B2032000F016BA1A
:1052A00010B50446042000F0D2F9208010BD01881A
:1052B000042000F019BA10B504460C2000F0B8F92B
:1052C000207010BD01780C2000F000BA01460F20BC
:1052D00000F018BA0146132000F014BA01460E205F
:1052E00000F0F4B900207047014B1860704700BF10
:1052F000640C00207047704708B5FFF7FCFF08BD3D
:10530000014B185C704700BF112F00207047704799
:1053100008B5302383F311880322C1B26FF30B0069
:1053200003F038FE002383F3118808BD38B50C4D17
:105330000F2455F8040B421C01D0FFF7E9FF013C94
:1053400014F0FF04F5D1074D072455F8040B431C56
:1053500001D0FFF7DDFF013C14F0FF04F5D138BDAB
:10536000A8AC00608CAC00602DE9F84FDFF89480A9
:1053700058F821400D46611C074637D0302383F38F
:105380001188DFF8849004EA0906E4B22146304629
:10539000062203F0FFFD21460022304603F0ECFD1B
:1053A000002484F31188FFF7B2FFDFF860B007260E
:1053B0004FF0010A5BF8040B421C19D10023013E97
:1053C00023434FEA4A0A16F0FF06DCB25FFA8AFA74
:1053D000F0D158F82500431C01D0FFF799FF211E9A
:1053E00018BF01212846FEF74DF97C55BDE8F88F1E
:1053F000C1B200EA090003F0B5FD0028DED1534632
:10540000DDE700BFA8AC006000F0FFFF8CAC0060DF
:1054100010B50F24FFF78AFF224600210748FCF74A
:1054200023FC224600210648FCF71EFC204600F023
:1054300037F8BDE81040FEF713B900BF112F002068
:10544000022F002030B585B00F2200216846FCF7FE
:105450000BFC0024E1B268460134FFF785FF0F2CF6
:10546000F8D10D4822466946FCF71CFD002814BF00
:105470000125002504D0084822466946FCF746FC71
:10548000064905482B460F2200F01AF80446FFF79C
:1054900033FF204605B030BD022F0020112F002021
:1054A00010B5C0EBC0042046FCF7CAFC034B2246F3
:1054B0000021BDE810401860FCF7D6BB501A002050
:1054C0002DE9F04F494C4A4D2778DFF8288185B007
:1054D0001E4600230290039101922B70002F00F0D2
:1054E000818001F0B3FB444B19681860411AFF2911
:1054F00042D8C9B1414B0022D3F800C02270C9B2D2
:1055000088F800209146964693460198D3B2984277
:1055100034D8B9F1000F02D0012388F80030BEF171
:10552000000F01D00123237046B93E4698F80030A1
:10553000F3B11EB901F08AFB2F4B18602F4A0023EC
:1055400088F80030D2F80080039A9C46561E4FF02F
:1055500001094FF0140A0198DAB2C3EBC30190427B
:10556000414421D8BCF1000F02D001232B702370DD
:10557000287805B0BDE8F08FFF21BBE70CF1FF33C1
:105580000CF1060A13F8010F40B1814233BF401AF3
:1055900083F800B0B946187038BFBE465345F1D104
:1055A0000CF1070C0132B0E7029A7078D75C002248
:1055B000474009FA02FE1EEA070F5FFA8EFB0AD087
:1055C00011F802E0BEF1000F05D101F802A08BEA4C
:1055D00000004FF0010C0132072AEAD106F8010F52
:1055E0000133B8E7002EA1D0A4E700BF4B1A00207A
:1055F000491A00204A1A00204C1A0020501A002094
:10560000FFF786BB08B501F0E4FA01F05CFDFFF797
:1056100033FB01F05BFDFFF76BFB01F065FD01F073
:1056200069FDFFF7EDFF01F081FDFFF73CFBF6E7B9
:1056300007B50023014601220DF107008DF8073060
:1056400000F07CF89DF8070003B05DF804FB07B597
:105650000023014602220DF10600ADF8063000F0ED
:105660006DF8BDF8060003B05DF804FB07B5042231
:10567000014600230DEB0200019300F05FF8019852
:1056800003B05DF804FB07B501228DF80710014651
:105690000DF1070000F06AF803B05DF804FB07B5F0
:1056A0000222ADF8061001460DF1060000F05EF88A
:1056B00003B05DF804FB07B50422019101460DEB30
:1056C000020000F053F803B05DF804FB38B50C4657
:1056D0000546FFF7ADFFA04205D021462846BDE8AC
:1056E0003840FFF7D0BF38BD38B50C460546FFF748
:1056F000AEFFA04205D021462846BDE83840FFF75E
:10570000CEBF38BD38B50C460546FFF7AFFFA04207
:1057100005D021462846BDE83840FFF7CCBF38BD4C
:1057200070470000024828220021FCF79DBA00BF04
:10573000541A002008B1FFF7F5BF704770B50D4649
:10574000144600210646FCF78FFA2B19282B88BF38
:10575000C5F128043CB10449224629443046BDE83D
:105760007040FCF7D3BA70BD541A00200B461144A8
:10577000282988BFC3F1280222B1014602481844F3
:10578000FCF7C4BA704700BF541A002008B50304E0
:1057900005D54B791BB100F004F800F023F8012087
:1057A00008BDB0F5404F70B5044619D3FFF78AF82D
:1057B0000546FFF7A9F80543FFF7C2F8EDB2064624
:1057C00000F0E4FF354315F0220F14BF012300233E
:1057D000C0F34000834214BFC4F3C61404F07F0436
:1057E000E0B270BD024B53F8200000F033B900BFA7
:1057F000DCAB006038B54B7904460D468BB1FFF742
:1058000061F8A4F5F843303B00F02200072B08D8DC
:10581000DFE803F0040D1216181A1C1E48B100F040
:105820006EF829462046BDE83840FFF7AFBF002894
:10583000F5D000F061F8F4E7002000F051F8F0E74F
:105840000120FAE70220F8E70320F6E70420F4E756
:105850000520F2E70A4A1278022A03460ED10928E7
:105860009FBF0933DBB20A22B3FBF2F19ABF02FBFE
:1058700011305930981FC0B2FEF746BA00F0B9BED9
:10588000212F0020704708B5FFF7FCFF08BD00007E
:1058900010B5064B064C00221A70204601232370D7
:1058A000FFF7A2F92078FFF7EEFF10BD7C1A002069
:1058B000212F002010B5084C2046FFF793F92378DC
:1058C000012B064B4FF000021A701CBF01232370FE
:1058D0002078FFF7D8FF10BD212F00207C1A002070
:1058E00010B5044603480470FFF77EF92046FFF721
:1058F000CAFF10BD212F00200120FFF7C9BF4FF0C4
:10590000FF30FFF7C5BF000038B5244D244C00F030
:105910003DFF2B782070012B05D1C3B29A0702D529
:105920003920FEF7F1F9FEF7CDFF1E4B1870FEF798
:10593000E5FFFEF7FFFF2B78052B07D8DFE803F024
:10594000030B10062025E220FEF7E2F8BDE8384000
:10595000642002F0EAB94FF44670FDF721FFF5E745
:105960002378DB0702D45320FEF7CEF9E220FEF7BE
:10597000CFF8642002F0D9F95720FEF7C5F9E5E722
:10598000E620FEF7C1F91820F7E740F21B10FDF7FB
:1059900007FF2520FDF704FF2820DEE7212F002048
:1059A000202F0020222F002008B5164B1B78052B36
:1059B00007D8DFE803F0030C17062022E220FEF7E9
:1059C00029F9114B1878BDE80840FEF791BF2C204B
:1059D000FEF79AF90D4B1B789A07F2D53920FEF79E
:1059E00093F9EEE7E220FEF715F9084B1B78DB0789
:1059F000E7D45320F3E72820F1E72820FDF7D0FE75
:105A0000DFE700BF212F0020222F0020202F0020C1
:105A1000F8B50F4B06461F7807250123AC0026FA80
:105A200004F404F00F0433B1042F09D1092C07D971
:105A30000020FFF70FFF2046FFF70CFF002303E0D5
:105A4000002CF8D1032DF6DD013DE7D2F8BD00BFF3
:105A5000212F0020B0F5881F38B5044606D2B0F5D6
:105A6000803F04D30E4D2B78022B04D138BDFFF7B5
:105A70004BFF20460FE0FFF747FF2B78002BF8D1B4
:105A8000A4F58034A00A00F55840C4F30904FFF7D8
:105A9000BFFF04F55C40FFF7BBFFFFF785FFE5E7BD
:105AA000212F002008B5431F3E2B00F28680DFE83F
:105AB00003F02D243022848422848451845D6984FF
:105AC00084848422848422844084848282828282A8
:105AD0008282828275842D20848484848484848458
:105AE000848475848422847B7B7B7B7B7B7B7B7B38
:105AF0007500FFF767F8012008BD314A137823F0DD
:105B00000F0313702F4B01221A70F4E7FDF719FFF2
:105B1000F1E72B4A1378C3F3000181F0010161F32F
:105B200000031370D9B2DB07E5D421F00E03137024
:105B3000E1E723490B78C3F3400282F0010262F3EC
:105B400041030B7013F0020FD5D01D4A137843F0B8
:105B50000103ECE71A490B78C3F3800282F00102DB
:105B600062F382030B7013F0040FEDE714490B7816
:105B7000C3F3C00282F0010262F3C3030B7013F09F
:105B8000080FE1E7FEF704FB0F490B78C3F3C012DF
:105B900082F0010262F3C7130B70ACE70120FEF73D
:105BA00048FBFEF7F5FAA6E73938C0B2012303FA3D
:105BB00000F080B2F3E71D38F7E700209CE700BF54
:105BC000481A0020851A0020002F0020002070476E
:105BD0000020704770B5574E3578012D044614D01B
:105BE000022D39D0002D40F0A280FEF76BFE222856
:105BF00026D12046FFF7EAFF28B92046FFF752FFDB
:105C000000F0010070BD0120FAE7FEF75BFE2228DC
:105C1000204609D1FFF7DAFF18B92046FFF742FF07
:105C2000054605F00100EDE7FFF7D2FF08B10120BE
:105C3000E8E7142C7BD005D80B2CF8D0102C08D01A
:105C40000020DFE7292C72D0A4F1380358425841D4
:105C5000D8E702233370EAE75228E8D84E2810D854
:105C6000272822D81D2822D8072846D01428DED17C
:105C7000314A1378002BDAD0002313702F4A1360B7
:105C8000D5E7A0F15004022C49D8DFE804F0330234
:105C90004A004FF0FF33294A1268002AC7D0117812
:105CA0000B44FF2B3FDDFF2337E02928DFE7224BA2
:105CB000A0F11D04E4B21C70013C052C17D8DFE8EC
:105CC00004F003070A0D10131C4B1D4A1A60AEE7BF
:105CD0001A4B1C4AFAE7194B1B4AF7E7174B1B4AAA
:105CE000F4E7164B1A4AF1E7144B1A4AEEE7002282
:105CF0001A709CE76FF00903CDE7114B06221A706A
:105D0000104B14221A70104B04221A700F4B0A22E7
:105D10001A700F4A012313700E4A137087E70A2383
:105D2000B9E70123B7E7002BB8BF0023F5E700234D
:105D3000337085E7851A0020841A0020801A00201D
:105D40006F0C00206E0C00206D0C00206C0C0020ED
:105D5000690C0020680C002047F61643984210B5E5
:105D60000C461BD1FEF7AEFD62790D4B72B100F00F
:105D7000AA00002813BF01220022292035201A7012
:105D800000F0FAFDFEF774FE002010BD1B78002B1A
:105D90000CBF2920352000F00DFEF3E70120F4E7C9
:105DA000861A002010B504464879002800F00E81BC
:105DB000A4F5E044A3B2222B34D88548013CFEF779
:105DC0000DFF212C23D8DFE814F07100EF007B00D9
:105DD0003400390080003E00850094004D00E6004C
:105DE0005200990057009E00CC005C00A300D50033
:105DF0006300AA00B40043008A0048008F006A00D4
:105E0000AF00C100E000E4002E007600F800704A08
:105E1000137843F0010313706D48FEF7E1FEFEF7BF
:105E2000B7F9002010BD6A4A537843F00803537055
:105E3000F2E7674A137843F00203ECE7644A137809
:105E400043F00403E7E7624A137843F00803E2E70C
:105E50005F4A537843F00103E9E75D4A537843F022
:105E60000203E4E75A4A137843F01003D3E7584A91
:105E7000137843F02003CEE7554A137843F04003EC
:105E8000C9E7FEF785F9524A137843F08003C2E769
:105E90004F4A137823F00C0343F00C03BBE74C4A42
:105EA000537823F0030343F00303C0E7484A137811
:105EB00023F00103AFE7464A537823F00803B6E71F
:105EC000434A137823F00203A5E7414A137823F0ED
:105ED0000403A0E73E4A137823F008039BE73C4AFB
:105EE000537823F00103A2E7394A537823F00203E1
:105EF0009DE7374A137823F010038CE7344A137870
:105F000023F0200387E7324A137823F0400382E727
:105F1000FEF73EF92E4A137823F080037BE72C4AE4
:105F2000137823F00C0376E7294A537823F0030310
:105F30007DE727490B78C3F3800282F00102D2B2D9
:105F400062F3820362F3C3030B7065E720494B7869
:105F5000DA4302F0010262F3000362F341034B7083
:105F60005AE71B490B78C3F3801282F0010262F3F7
:105F70008613E9E7FEF70CF915490B78C3F3C01255
:105F800082F0010262F3C713DEE70120FEF72EFE66
:105F900042E70020FAE70E490B78C3F3001282F0C3
:105FA000010262F30413CFE709490B78C3F300023F
:105FB00082F0010262F30003C6E705494B78C3F3A0
:105FC000C00282F0010262F3C303C8E7012029E79F
:105FD000002F002000EB4003C3EB031300EB830012
:105FE00083B200B2002807DA803800B2002800DA55
:105FF000FF3040F30720704703F18000F9E700000D
:10600000164B1B78D90707D5154B187840007F2809
:1060100020D808B3C0B270479A0703D5104B187840
:106020008000F4E75B0703D50D4B1878C000EEE75E
:106030000C4B1B7863B10C4A0949127808789342DB
:10604000F4D210FB03F0C000B0FBF2F080B2DEE748
:106050000820DFE77F207047012070478E1A00205C
:106060006D0C00208D1A00206C0C0020144B1B7846
:10607000D90705D5134B18788008F8B1C0B270471E
:106080009A0703D50F4B18784008F6E75B0705D54C
:106090000C4B18787F28F0D97F2070470A4B1B786B
:1060A00053B10A4A07491278087893423CBF10FB63
:1060B00003F0B0FBF2F0EDE70120DFE701207047CD
:1060C0008E1A0020690C00208C1A0020680C002019
:1060D00008B5A0F1CD03122B10D8DFE803F00A10A9
:1060E00013192E2E2E2E2E2E2E2E1C21252B363C15
:1060F0004100FFF785FF40421C4BD87008BDFFF7F9
:106100007FFFF9E7FFF77CFF4042184B9870F5E7F7
:10611000FFF776FFF9E7FFF7A9FF144B1871EDE7DA
:10612000FFF7A4FF4042F8E7FFF7A0FF40420F4B04
:106130005871E3E7FFF79AFFF9E70C4AD138517835
:10614000012383400B435370D8E7094A137843F087
:1061500001031370D2E7064A137843F00203F8E70D
:10616000034A137843F00403F3E700BF8F1A0020BB
:106170008E1A002030B5414BCD2893F9035093F986
:10618000024093F9041093F9052012D1002D01DA91
:106190000022DA70D9789A780A4351B20AB9384A9B
:1061A00011701A795B7913435AB20BB9354B1A70D7
:1061B00030BDCE2802D1002DEADCEBE7CF2804D198
:1061C000002CE7DA00229A70E4E7D02802D1002CF4
:1061D000F8DCDFE7D92804D10029DBDD00221A71C1
:1061E000D8E7DA2802D10029D4DAF7E7DB2804D18E
:1061F000002ACFDA00225A71CCE7DC2802D1002A2B
:10620000F8DCC7E7D1380E28C4D801A252F820F034
:106210004D6200604D6200604D6200604D62006042
:106220004D6200604D6200604D6200604D62006032
:106230009561006095610060956100609561006006
:106240005B62006067620060716200605A780121E1
:10625000814022EA01025A709CE70B490A7822F039
:1062600001020A7096E708490A7822F00202F8E76C
:1062700005490A7822F00402F3E700BF8F1A0020D4
:106280008D1A00208C1A00208E1A002008B500F00C
:106290000FFD094B9A78D9780A431CBF074A108032
:1062A0001A795B791A431CBF054B1880BDE808407A
:1062B000014800F085BA00BF8F1A00208A1A00201A
:1062C000881A002008B5062205480021FBF7CCFCFF
:1062D000044A00231370044A1370044A137008BD63
:1062E0008F1A00208D1A00208C1A00208E1A002090
:1062F00090F902305BB990F9033043B990F904305A
:106300002BB990F90500003818BF01207047012013
:106310007047000037B5594C062221466846FBF706
:10632000F5FC00239DF80320A370E37023716371D3
:106330009DF8023013430AD0514B188800F03AFC04
:1063400050490B783BB3504A127890422DDC9DF8AF
:1063500004309DF8052013430BD04C4B188800F0F7
:1063600029FC4B490B78002B4ED04A4A12789042B8
:1063700054DC4248694600F057FB18B93F48FFF724
:10638000B7FF08B1FFF782FF062269463B48FBF7DB
:10639000BDFC03B030BD404A127802EB8202B0EB84
:1063A000420FD4DD01330B7001E0FF2BFAD19DF9D0
:1063B00002503DB1FFF724FE002DD4BFFF2301237F
:1063C0004343A3709DF903503DB1FFF719FE002D23
:1063D000D4BFFF2301234343E37094F90200002854
:1063E000B5D094F90320002AB1D0FFF7F3FD0028BF
:1063F00008BF0120A0701046FFF7ECFD08B1E07067
:10640000A5E70123E370A2E7244A127802EB820297
:10641000B0EB420FADDD01330B7001E0FF2BFAD181
:106420009DF904503DB1FFF721FE002DD4BFFF239D
:106430000123434323719DF905503DB1FFF716FE3B
:10644000002DD4BFFF2301234343637194F904005B
:1064500000288ED094F90520002A8AD0FFF7BAFDD3
:10646000002808BF012020711046FFF7B3FD08B1D6
:1064700060717EE7012363717BE700BF8F1A002004
:106480008A1A00208D1A00206E0C0020881A002025
:106490008C1A00206A0C00206F0C00206B0C00206E
:1064A0004E4B4F4A2DE9F04113F80080C30800F02D
:1064B0000700D55C4B4AD65C4B4AD75C0541064188
:1064C000074115F001050C4606F0010607F001072B
:1064D00012D0E120FDF71CFB002C70D042F21070AE
:1064E000A4FB00034FF47A72002300F2E73000218E
:1064F000FBF714FA01F019FC96B1E620FDF708FB52
:10650000002C5ED042F21070A4FB00034FF47A72AC
:10651000002300F2E7300021FBF700FA01F005FC50
:1065200021464046FDF7D6FB002C4CD042F21070BD
:10653000A4FB00034FF47A72002300F2E73000213D
:10654000FBF7ECF901F0F1FB8EB1E620FDF762FB01
:10655000DCB342F21070A4FB00034FF47A72002304
:1065600000F2E7300021FBF7D9F901F0DEFB8DB135
:10657000E120FDF74FFB54B342F21070A4FB00037F
:106580004FF47A72002300F2E7300021FBF7C6F9DE
:1065900001F0CBFBFFB12C20FDF7B6FBCCB142F2F2
:1065A0001073A4FB03034FF47A72002300F2E73068
:1065B0000021FBF7B3F9BDE8F04101F0B6BB0120C3
:1065C00098E70120AAE70120BCE70120CDE70120E0
:1065D000DEE70120EFE7BDE8F08100BFE4AC00603A
:1065E00084AD006074AD006064AD00600021FFF711
:1065F00057BF00F00F030A3B052B8CBF30305730DC
:10660000C0B2FFF7F3BF0000F8B5144642799DF819
:1066100018701D46284B92B11C7000F049FB274BA7
:10662000188004F12003DBB2072B44D804F00704E0
:106630000120A040C0B2BDE8F840FDF76DBB1E7858
:10664000A6422ED11D4B188800F0B4FAC72828D8CE
:10665000AE4205F1200415D006F12003DBB2072B72
:1066600006D806F007060120B040C0B2FDF75DFB7A
:10667000E3B2072B06D805F0070301209840C0B20B
:10668000FDF74AFB3846E4B2FDF73EFB072C12D873
:1066900005F007050120A840BDE8F840C0B2FDF7AD
:1066A00044BB04F12003DBB2072B04D804F0070439
:1066B0000120A040F0E7F8BD981A0020961A0020AB
:1066C0000346A3F5F843183B07B50846062B3BD80D
:1066D000DFE803F0171E0410252C33002623009357
:1066E000E1231A4647F61A41FFF78EFF002003B058
:1066F0005DF804FB27230093E5231A4647F61B4168
:10670000F2E726230093E022E12347F61841EBE766
:1067100027230093E422E52347F61941E4E72623E3
:106720000093E222E12347F61C41DDE72723009393
:10673000E622E52347F61D41D6E728230093E5220C
:10674000012347F61E41CFE74B7913B1024B0022DC
:106750001A700120CBE700BF981A0020014B186087
:10676000704700BFA01A002008B500F0D9F9431EF9
:106770005842584108BD0000034B1B6813B11B6809
:1067800003B1184700207047A01A002008B5FFF792
:10679000F3FF08BD034B1B6813B15B6803B11847D7
:1067A000704700BFA01A0020044A126822B1926804
:1067B00012B1062101701047704700BFA01A0020D7
:1067C000044A126822B1D26812B102210170104746
:1067D000704700BFA01A00200B4B07B51A888242F1
:1067E0000FD01880094B1B685BB11B694BB10322AA
:1067F0008DF80500000A8DF806008DF8042001A828
:10680000984703B05DF804FB9C1A0020A01A0020F2
:106810000C4B07B51A88824210D018800A4B1B68AF
:1068200063B11B6953B104228DF80500000A8DF88D
:1068300006008DF804200DEB0200984703B05DF8C8
:1068400004FB00BF9A1A0020A01A00200F4B10B5BD
:106850001C680234FFF788FFB0B10D4B93F900308C
:10686000002B11DA0B4B1C681E210234224600203B
:1068700012F8013B0BB10130C0B28B1A54FA83F30A
:10688000DBB2002BF4D110BD0621EFE7600C002035
:10689000002F00205C0C002010B5044618B3FFF751
:1068A00063FFB0B1124B93F90030002B11DAEF2CDB
:1068B0004FEAD40217D80F4B1B68134404F00704A7
:1068C0009A78012303FA04F4224214BF18460020E8
:1068D00010BD094B1B685A1C073312F8011FA14257
:1068E00003D09A42F9D10020F2E70120F0E700BF7F
:1068F000002F00205C0C0020600C002030B500222E
:10690000441C4FF0FF3314F8015F8D420BD0B3F1FC
:10691000FF3F01D105B953B20132062AF3D15A1C07
:1069200001D01844817030BD10B5431C00220730DF
:1069300013F8014F8C4208BF1A708342F8D110BD82
:10694000EF294FEAD10307D8184401F007018278F4
:1069500001238B40134383707047EF294FEAD10323
:1069600008D8184401F00701837801228A4023EAFD
:10697000020383707047000010B50446FFF7F4FE71
:10698000214650B1084B93F90030002B05DA074B34
:10699000BDE810401868FFF7D3BF054BBDE81040B5
:1069A0001868FFF7ABBF00BF002F00205C0C002071
:1069B000600C002010B50446FFF7D6FE214650B10A
:1069C000084B93F90030002B05DA074BBDE8104067
:1069D0001868FFF7C2BF054BBDE810401868FFF705
:1069E000A3BF00BF002F00205C0C0020600C002023
:1069F00008B5FFF7B9FE68B1084B93F90030002BDA
:106A000008DA074B18681E22BDE808400021023052
:106A1000FBF72AB9034B06221868F5E7002F002080
:106A20005C0C0020600C002042784B789A421DD10B
:106A300090F902301BB191F902209A4216D190F9D7
:106A400003301BB191F903209A420FD190F9053020
:106A50001BB191F905209A4208D190F9040030B198
:106A600091F90430181A18BF0120704701207047AF
:106A700082B002B0704707B5FFF7FAFF03B05DF8C8
:106A800004FB000007B5074904220130C8700DEB74
:106A90000200FBF73BF90198FFF7EDFF03B05DF84B
:106AA00004FB00BF700C002007B507490422032334
:106AB0000DEB0200CB70FBF729F90198FFF7DBFF24
:106AC00003B05DF804FB00BF700C0020FFF7DABFD5
:106AD00007B50749042201230DEB0200CB70FBF739
:106AE00015F90198FFF7C7FF03B05DF804FB00BF7D
:106AF000700C0020FFF7ECBF07B50038074918BF3E
:106B00000120042288700DEB0200FBF7FFF80198CA
:106B1000FFF7B1FF03B05DF804FB00BF700C00206D
:106B2000014B9878704700BF700C002007B50649EC
:106B3000042248700DEB0200FBF7E8F80198FFF71C
:106B40009AFF03B05DF804FB700C0020014B5878ED
:106B5000704700BF700C002007B50649042208707A
:106B60000DEB0200FBF7D2F80198FFF784FF03B0AA
:106B70005DF804FB700C002070477047704708B543
:106B8000FFF7FCFF08BD704708B5FFF7FCFF08BD25
:106B900010B5FFF7F1FFFEF755FCFFF7EEFF0024FD
:106BA000E0B2FEF7ADFB18B901340F2CF8D110BDDF
:106BB0000120FCE710B5044600F07AF8001B80B213
:106BC00010BD10B5102204460021FBF74DF82046F9
:106BD00010BD08B501F066F9BDE8084000F0B8BE88
:106BE00008B5FCF7BEFEBDE80840AA2001F09DB83C
:106BF00008B5FDF783FEFDF79DFEFFF7F9FEFFF7F1
:106C000061FB0020FFF7E8FD0020FFF701FEBDE873
:106C10000840FCF7AFBE0000302383F31188064B19
:106C2000DA69064B1A60064A00231360054A1360AE
:106C300083F31188704700BF402F0020AC1A00205A
:106C4000A81A0020A41A0020FFF7E6BF70B500F0D4
:106C5000ADFE124D124B1349DC692B680A68E41A29
:106C6000A242114A08D9A3F5E4532B6015680F4BD3
:106C70002B4404F5E454136016680C604FF47A75E5
